:020000040800F2
:1000000010050020D900000849190008FF16000853
:1000100000000000000000000000000000000000E0
:10002000000000000000000000000000AD19000802
:1000300000000000000000004B190008AF19000884
:10004000EB000008EB0000089D190008EB00000819
:10005000EB0000080D020008EB0000081D0200087C
:10006000EB000008EB000008EB000008EB000008C4
:10007000EB000008EB000008EB000008EB000008B4
:10008000EB000008EB000008EB0000080000000097
:10009000EB000008EB000008EB000008EB00000894
:1000A000EB000008EB000008EB000008EB00000884
:1000B0007D1E0008EB00000800000000EB000008B7
:1000C0000448854600F090F8004800473D1F0008AE
:1000D000C046C04610050020044880470448004739
:1000E000FEE7FEE7FEE7FEE7FEE7FEE7511A00083F
:1000F000C100000830B50B46014600202022012433
:1001000009E00D46D5409D4205D31D469540491B4B
:100110002546954040191546521E002DF1DC30BD94
:10012000F0B51FB40646002082B005464024019178
:1001300000901BE0019922460F46304600F042F83D
:10014000049A059B801A994110D3104619462246FD
:1001500000F028F8361A8F4101972246012000212D
:10016000009F00F01FF838184D4100902046641E93
:100170000028DFDC019B00982946324607B0F0BD1D
:10018000D2B201E00270401C491EFBD2704700222F
:10019000F6E710B513460A4604461946FFF7F0FF86
:1001A000204610BD10B5202A04DB0146203A9140BC
:1001B000002010BD914020239C1A0346E3401943C0
:1001C000904010BD10B5202A04DB0846203AD040EC
:1001D000002110BD0B46D340D0402024A21A9140EC
:1001E0000843194610BD0000064C0125064E05E0E7
:1001F000E36807CC2B430C3C98471034B442F7D348
:10020000FFF762FF941F0008B41F000810B501201B
:1002100000F06AF8022000F067F810BD10B5102059
:1002200000F062F80120400300F05EF810BD30B528
:10023000014620314A790023022A04D00422C263F5
:100240000B71012030BD026814680E25AC431460A8
:1002500002681468640864001460446C1C22144032
:1002600001221546006CA54045604A7118460B7185
:1002700030BD70B50024014620314A79022A03D0EE
:100280000421C163012418E0026813680E25AB4302
:100290001360026813685B085B001360436C1C22E8
:1002A0001340012215469D40036C5D604A71002297
:1002B0000A71816B002900D08847204670BD00007C
:1002C00070B5044600F0ECF80546601C02D0044806
:1002D0000078241800F0E4F8401BA042FAD370BD67
:1002E000000000207047000010B504494A6902422E
:1002F00002D04861FFF7F6FF10BD00000004014086
:10030000FCB500230124A7E027462A469F403A4037
:100310006FD04D68012D05D0022D03D0112D01D0D5
:10032000122D16D185680326AC465D00AE46AE4060
:100330006546B543AC46CE687546AE4065462E432D
:10034000866046680D79BE43ED06ED0F9D4035434E
:100350004560C6685F000325BD40AE46AE433546E6
:100360008E68BE402E43C6604E68022E01D0122E0B
:1003700014D1DE08B60036180196366A5D07B44619
:10038000EE0E0F25B54000966646AE43B4460D69A5
:10039000009EB54066462E43019D2E620668754656
:1003A000AE430D79AD07AD0FBD40354305604D68D7
:1003B000ED0050D52B4D6E6B26436E639E082A4D83
:1003C000B6007519AC46AD689E07360F0F27B740CB
:1003D000BD4305273F07B84201D100271AE0234F4C
:1003E000B84201D1012715E0214FB84202D10227BE
:1003F00010E030E01F4FB84201D103270AE01E4F42
:10040000B84201D1042705E01C4FB84201D10527AD
:1004100000E00627B7402F436546AF60184D2E68B1
:100420004F689643FF0300D516432E606E684F68F1
:100430009643BF0300D516436E60AE684F6896437F
:10044000FF0200D51643AE60EE684F689643BF02C8
:1004500000D51643EE605B1C0A681546DA4000D0F2
:1004600052E7FCBD001002400000014000040050B3
:1004700000080050000C005000100050001C0050FC
:1004800000040140426913460B401B0491430B4397
:1004900083617047002A01D0816170478162704793
:1004A0000148806870470000000000200248816811
:1004B00002788918816070470000002010B5084854
:1004C00000240168402211430160204600F00AF830
:1004D000002801D0012401E000F026F8204610BDDC
:1004E0000020024070B504460D4D7D202978C000E3
:1004F000FFF700FE01460B480068FFF7FBFD00F028
:1005000065FF002809D1042C07D200222146401E95
:1005100000F022F800206C6070BD012070BD00006A
:10052000000000200C0000200448416B0122114310
:100530004163816B020411438163704700100240E4
:10054000002805DBC106C90E01208840014908606A
:100550007047000000E100E010B501F0BDFC10BDE7
:10056000F8B50446007800275D4D800671D55C4ED5
:10057000403EB06BC00004D4B06BA9050843B06323
:10058000012758480168C90511D401688215114333
:100590000160FFF785FF009005E0FFF781FF0099FC
:1005A000401A642837D84F480068C005F5D532682E
:1005B0000321090560680A400140914208D0810387
:1005C000890F032904D13168890301D50120F8BDC1
:1005D0002A69032109040A4022D0084090421FD012
:1005E000207880061CD528692A6988430121C9041E
:1005F0000A432A612A698A432A612861C0050FD506
:10060000FFF74EFF009008E0FFF74AFF0099411AFC
:100610003548814201D90320F8BD28698005F3D50A
:1006200061688803800F032805D132680005824382
:1006300001400A43326028690322616812041140B4
:1006400008432861002F04D0B06B012109078843BB
:10065000B0632078C00705D0E868A16880088000F2
:100660000843E8602078800705D5E8680C218843B6
:10067000E1680843E8602078400706D5E868032170
:100680008902884321690843E8602078000706D57D
:10069000E86803210903884361690843E86020880A
:1006A000C00506D5E868032109048843A169084309
:1006B000E8602078400606D5E8680121890688436D
:1006C000216A0843E8602078000606D5E86803211F
:1006D00089048843E1690843E8600020F8BD000010
:1006E000401002400070004088130000F8B50E462C
:1006F000050038D05E480068C007C00FB04214D271
:100700005B4C20684008400030432060FFF7C8FE83
:10071000074605E0FFF7C4FEC11B564881427AD860
:100720002068C007C00FB042F4D12878524C80072F
:1007300005D5E068F0218843A9680843E06028787F
:10074000C00752D06868022806D0032807D0216865
:1007500001280AD0890504E02168890301E02168A5
:100760008901002903DB0120F8BD4907F9E7E168A9
:10077000890889000143E160FFF792FE0746686837
:1007800002280AD0032814D001281ED029E0FFF740
:1007900087FEC11B374881423DD8E0680007800FC3
:1007A0000228F4D121E0FFF77BFEC11B31488142D2
:1007B00031D8E0680007800F0328F4D115E0FFF777
:1007C0006FFEC11B2B48814225D8E0680007800FCF
:1007D0000128F4D109E0FFF763FEC11B25488142DF
:1007E00019D8E0680007800FF5D121480168C907D2
:1007F000C90FB14217D90168490849003143016066
:10080000FFF74EFE074608E005E0FFF749FEC11B73
:100810001848814201D90320F8BD15480068C00777
:10082000C00FB042F1D12878400706D5E068072113
:1008300009028843E9680843E0602878000707D583
:10084000E0680721C90288432969C9000843E060BC
:1008500000F03AF8E168094A0906090F515CC840FE
:100860000749086007480068FFF73CFEF8BD000034
:10087000002002408813000000100240701F000892
:100880000C00002004000020044805490068C968E5
:10089000044A4905490F515CC84070470C000020CC
:1008A00000100240891F0008044805490068C96813
:1008B000044A8904490F515CC84070470C0000206D
:1008C00000100240891F000870B51A4AD3681A49FF
:1008D0000C2018408D0004280CD04E00082810D0A1
:1008E0000C2810D050680004410F0120C003491C9F
:1008F000884070BD1068C00601D5084670BD284606
:1009000070BD304670BD98020C4C000F205C1B027D
:100910009C0FD368641CDB0301D5314603E01268E9
:10092000D20600D4294601F0B1FA22460023FFF78F
:10093000F7FB70BD0010024000093D00801F000859
:10094000FEB505007ED0F74CE7680C20E66807404E
:100950000120000406402878C00747D0082F05D0A2
:100960000C2F0AD101200004864206D120688003A2
:100970003CD568680028E5D038E0012069680004AB
:10098000814203D121680143216011E00523012246
:100990001B0492049942216802D111432160F1E7BE
:1009A00081432160216801400091206890432060CC
:1009B000686800280DD0FFF773FD009005E0FFF791
:1009C0006FFD0099401A64287ED820688003F6D510
:1009D0000CE0FFF765FD009005E0FFF761FD009971
:1009E000401A6428F0D820688003F6D4287880075D
:1009F0005DD5E868810604D5226820210A4322607B
:100A000088430923042F0DD00C2F01D1002E09D0CB
:100A100000283CD02168994301432160FFF740FD45
:100A2000064628E02168490701D500288AD0616878
:100A30001F22120291432A69120211436160216848
:100A4000994300E0C7E101432160FFF73DFFE16802
:100A500009060A0FB449895CC840B4490860B44823
:100A60000068FFF73FFD002874D120E0FFF718FD74
:100A7000801B0228A8D820684007F7D560681F218E
:100A80000902884329690902084360600FE0206871
:100A9000400840002060FFF703FD064604E0FFF732
:100AA000FFFC801B02288FD820684007F7D42878E5
:100AB000C00661D5002F0DD0E86900284BD0206812
:100AC000FF210131084300E0EAE02060FFF7E8FC85
:100AD00006462DE02068800502D5E8690028A5D0EB
:100AE0006068072149038843696A08436060606859
:100AF000298C0002000A090608436060686A410BFD
:100B00000120C003491C8840E16809060A0F864994
:100B1000895CC8408549086085480068FFF7E2FCA9
:100B2000002817D128E0FFF7BBFC801B0228A1D8C2
:100B300020688005F7D56068072149038843696A02
:100B4000084360606068298C0002000A09060843B7
:100B5000606011E025E12168FF20013081432160C0
:100B6000FFF79EFC064604E0FFF79AFC801B022874
:100B700099D820688005F7D428786E4E000724D5D0
:100B800068690028306910D0012108433061FFF7FF
:100B900087FC009005E0FFF783FC0099401A0228CB
:100BA0007ED830698007F6D50FE0400840003061FC
:100BB000FFF776FC009005E0FFF772FC0099401A01
:100BC00002286DD830698007F6D42878400764D5AC
:100BD00000200290A06BC00006D4A06B0121090781
:100BE0000843A0630120029053480168C90511D44D
:100BF0000168821511430160FFF752FC009005E087
:100C0000FFF74EFC0099401A642849D84A4800680A
:100C1000C005F5D5FF20AA680130824203D13169B1
:100C20000143316111E001218902002A07D0052327
:100C30001B029A4203D132690A433261EFE73269FB
:100C400082433261306988433061A86800280ED041
:100C5000FFF726FC009006E0FFF722FC0099411AFE
:100C6000364881421CD830698005F5D50DE0FFF784
:100C700017FC009006E0FFF713FC0099411A2F487B
:100C800081420DD830698005F5D40298002804D03F
:100C9000A16B012000078143A1632878800600E052
:100CA0007EE02ED52648A9694314002916D0A268F3
:100CB00001210A43A260626B0A436263016A19431D
:100CC0000162FFF7EDFB064604E0FFF7E9FB801B3E
:100CD000022865D8A0688007F7D512E0A168490806
:100CE0004900A160016A99430162FFF7D9FB0646FA
:100CF00004E0FFF7D5FB801B022851D8A0688007CD
:100D0000F7D4A86A002868D00C2F4FD001263606E9
:100D10000228206816D0B0432060FFF7C1FB0546CB
:100D200040E0000000100240701F00080C0000208E
:100D300004000020401002400070004088130000B2
:100D400000000140B0432060FFF7AAFB074604E023
:100D5000FFF7A6FBC01B022822D820688001F7D429
:100D6000296BE86AE2680843696BFD231B049A4318
:100D700011430843E060206830432060FFF790FB98
:100D8000054604E0FFF78CFB401B022808D82068CA
:100D90008001F7D521E0FFF783FB401B022801D932
:100DA0000320FEBD20688001F5D416E00128F8D0AC
:100DB000E06801210904EA6A014091420BD10F2148
:100DC00089042A6B0140914205D10321890508401D
:100DD000696B884201D00120FEBD0020FEBD704736
:100DE0007047000070B50446006881688025C9041A
:100DF00000290BDAC068C00508D52046FFF7F0FFD0
:100E00002168C8682840FF388238C8602068816837
:100E100089040BD5C068800508D52046FFF7DFFFA1
:100E20002068C168054A29408918C1600120044929
:100E30004004486101202034607070BD7FFDFFFFD9
:100E400000040140F8B5040050D0254620356878EC
:100E5000002803D12870204600F052F80220687064
:100E60002168CA204862216853204862204600F069
:100E700079FDFF2604270028206802D046626F70A3
:100E800034E081681D4A1140816021688868626889
:100E9000A369104322691A43104388602168E068FF
:100EA00008612068016922891204114301612068E8
:100EB000C16880229143C1602068C16C89088900A3
:100EC000C164E169606901432068C26C1143C16477
:100ED0002068806880060BD4204600F0C7F90028FF
:100EE00006D0206846626F70002028700120F8BD8F
:100EF00020684662012068700020F8BDBFFF8FFFA8
:100F000010B50068084988420DD1084801690122DE
:100F1000920411430161002211460220FFF71CFBDD
:100F20000220FFF70DFB10BD0028004040100240DA
:100F3000FEB506460446203630780B4601283ED0E2
:100F40000120307002207070184620300090206818
:100F500000278068002A34D0400600D4DF7019785A
:100F60009D7809040D435978DA7809021204114377
:100F70000D430099D869097809060D43054358695E
:100F8000996905435868084300902168CA2048625F
:100F9000216853204862FF205A6A01308021824232
:100FA00045D122689368834393602068C2680A40F1
:100FB000FF3A823AC260FFF773FA019024E0022000
:100FC000FEBD400600D4DF70187800F0BFFC0504B9
:100FD000587800F0BBFC00020543987800F0B6FC9E
:100FE0000543D878000405430098007800F0AEFC73
:100FF00000060543D869C1E7FFF752FA0199411A83
:101000007D20C00081422AD82068C068C007F3D084
:101010002068C56121680098486420688168FF22C3
:1010200001321143816020688168120130E020683C
:10103000826801235B029A4382602068C2680A408A
:101040001D495118C160FFF72BFA01900EE0FFF720
:1010500027FA0199411A7D20C000814206D92168F2
:10106000FF204862032070703770FEBD2068C068A2
:101070008007ECD5206805622168009888642068A4
:101080008168012252021143816020688168120147
:101090001143816009480268012149040A43026042
:1010A00082680A4382602168FF20486201207070D4
:1010B00037700020FEBD00007FFDFFFF00040140EF
:1010C000F8B505460446203528780B4601280FD090
:1010D0000120287002206870002A0BD0D8789E78F2
:1010E000000406435878097800024903084317E0D2
:1010F0000220F8BD5878C10603D5EF2108400A3018
:101100005870D87800F022FC0604587800F01EFCD5
:1011100000020643987800F019FC06431878400353
:1011200006432168CA20486221685320486220464D
:1011300000F018FC0027002811D111480640206853
:1011400046602068C16880229143C1602068806841
:1011500080060CD4204600F089F8002807D02168CA
:10116000FF204862042068702F700120F8BD2168BC
:10117000FF204862012068702F700020F8BD000039
:101180003FFFFF00F8B506460446203630780D468E
:10119000012822D0012030700220707020680027C2
:1011A0008068002A1BD0400600D4EF702978A87808
:1011B000090408436978EA780902120411430843D4
:1011C00000902168CA204862216853204862204666
:1011D00000F0C8FB002837D116E00220F8BD400619
:1011E00000D4EF70287800F0B1FB0304687800F0B9
:1011F000ADFB00020343A87800F0A8FB0343E878A6
:10120000000403430093DCE7174900980840216875
:1012100008602068816801229204914381602969F5
:10122000E868084321688A68104388602068C168BC
:1012300080229143C1602068806880060CD42046DB
:1012400000F014F8002807D02168FF20486204202D
:10125000707037700120F8BD2168FF2048620120BE
:10126000707037700020F8BD7F7F7F0070B5044636
:101270000068C168A0229143C160FFF711F97D2683
:101280000546F60006E0FFF70BF9401BB04201D916
:10129000032070BD2068C0688006F4D5002070BDB2
:1012A000F8B504000ED0FF27606A05370025002836
:1012B0000AD02561656126464036A562707C00280B
:1012C00007D00AE00120F8BD6068B842F3D0E561BC
:1012D000F1E73574204600F03FF802217174206870
:1012E000026840239A4302602123A26860689B023F
:1012F0001A4038401043E3688A02134018432369B8
:101300000B40217D1843C907C90F0843A1699310F9
:1013100019400843E169382319400843216A8023B2
:1013200019400843A16A93001940084321680860E6
:10133000A0690421000C0840616A10231940084389
:10134000216848602068C1699143C16165650120D9
:1013500070740020F8BD000070B586B004461421FA
:101360006846FEF714FF16492068884225D11548C3
:10137000416B821411434163C16A02242143C1625B
:10138000C16A21400591C16A01221143C162C06A4C
:1013900000251040059008200326694671C1694662
:1013A00009480495FEF7ACFFC020694671C10520CD
:1013B000694600070495FEF7A3FF06B070BD000064
:1013C000003001400010024000040050094910B5EF
:1013D000401E884201D9012010BD074C60610321E5
:1013E000081F00F079FD0020A06107202061002087
:1013F00010BD0000FFFFFF0000E000E070477047F5
:1014000070470000F8B502680446D0691168966814
:10141000814B05461D402023002D6CD0F7077F4DE2
:10142000FF0FBC460D402F4379D02546C7078035B6
:10143000002F06D0CF0504D5012717622A683A434A
:101440002A60820708D5F20706D0276802223A628E
:101450002A6804273A432A60420708D5F20706D0D3
:101460002668042232622A68022632432A60020772
:101470000AD50A461A406646324305D02668082235
:1014800032622E6816432E60020508D54A0106D541
:1014900001222668D20232622A681A432A602A6828
:1014A000002A30D0800606D5880604D5616E002952
:1014B00001D020468847286821688968490602D4F7
:1014C0002821084225D0204600F064FB206881686E
:1014D000490619D5826840218A438260206F00281E
:1014E00012D04F498163206FFEF7C3FE00280AD057
:1014F000206F816B06E0850611D58D060FD5616ED4
:1015000077E020468847F8BD2046FFF779FFF8BD11
:1015100005E02046FFF774FF00202860F7E7256EFE
:10152000012D56D1C50654D5CD0652D510261662CA
:101530002068816825464906403500292ADA226F4D
:10154000116849680904090CE1D02F8B8F42DED95C
:10155000698311680968890617D4016832019143CB
:1015600001602068816849084900816020688168BD
:10157000402291438160E367002020662068016873
:10158000B1430160206FFEF752FE288B698B401A31
:1015900081B21AE0298B6A8B891A6A8B89B2002A78
:1015A000B5D00029B3D00268FF252135AA430260D7
:1015B00020688268520852008260E367002020663B
:1015C000606620680268B24302602046FFF716FF9B
:1015D0009DE7C50208D5750206D5012000051062F9
:1015E0002046FFF70CFF92E7050605D50D0603D54B
:1015F000A16E002985D18AE7400688D5480686D5A0
:10160000116820464024A143116083670021816650
:1016100000F074F87BE700000F08000020010004D0
:10162000811B000810B5040003D0A06F002802D071
:1016300007E0012010BD002174200155204600F074
:1016400027F82420A0672068016849084900016044
:10165000204600F0B9FA0128ECD0606A002802D0D8
:10166000204600F0F6F9206841680922D202914331
:101670004160206881682A22914381602068016866
:10168000012211430160204600F048FA10BD00001D
:1016900010B586B0044614216846FEF778FD15495A
:1016A0002068884223D11448816B012252041143DF
:1016B0008163C16A01221143C162C06A6946104058
:1016C00005900C2000900220019000200290032041
:1016D00003900420049005200007FEF711FE00226D
:1016E00011461C20FEF738FF1C20FEF729FF06B02C
:1016F00010BD000000440040001002407047FEE7AB
:10170000F0B587B014216846FEF741FD3B48C16A39
:1017100001252943C162C16A29400591C16A022697
:101720003143C162C16A31400591C26A04210A4352
:10173000C262C26A0A400592C26A80210A43C2623A
:10174000C06A00220840059005202D490007FEF7D9
:10175000A1FE0022E0212B48FEF79CFE002207217B
:101760002948FEF797FE26480024203800900520DF
:1017700069460396019502940007FEF7C1FDE0203B
:10178000009002946946019503941E48FEF7B8FD47
:1017900013201E4F00906946019702941948FEF7E6
:1017A000AFFD680300906946019702941648FEF762
:1017B000A7FD072000906946039601950294124800
:1017C000FEF79EFD202000900520029469460195B9
:1017D00003940007FEF794FD002211460520FEF752
:1017E000BBFE0520FEF7ACFE002211460720FEF7E7
:1017F000B3FE0720FEF7A4FE07B0F0BD00100240C4
:101800002290000000040050000800500000111059
:1018100030B591B014216846FEF7B9FC00242821A8
:1018200006A80594FEF7B3FC2549264812C01F21DF
:1018300001608460C46004612349446141600838E8
:10184000FFF700FB002801D072B6FEE7684604707F
:10185000447084700394002269461A480494FFF788
:1018600091FC002801D072B6FEE701256846057597
:1018700045758575C475002205A91248FFF720FC3F
:10188000002801D072B6FEE7684604764476847676
:101890000F20079400060C9009940A940B940D9461
:1018A00008A80576FF2001300F90002206A9054800
:1018B000FFF73EFB002801D072B6FEE711B030BD45
:1018C0000028004010000020FF03000010B50F4862
:1018D0000D490160FF210531416000218160C16037
:1018E0000122016152028261416101622022416252
:1018F000C26181620721C162FFF7D2FC002801D0DA
:1019000072B6FEE710BD0000003001403400002038
:1019100010B50C480A490160E121490241600021EB
:101920008160C16001618161C1610C22016242611B
:101930004162FFF777FE002801D072B6FEE710BDC6
:10194000004400408C000020FEE770470022014662
:1019500002E00A39C9B2521C0A29FAD21007000E55
:101960000843704770B504460068C168490613D43F
:101970000021C943C160FEF793FD7D260546F600B0
:1019800006E0FEF78DFD401BB04201D9032070BD7B
:101990002068C0684006F4D5002070BD10B502482C
:1019A000FFF720FA10BD000010000020704710B5AE
:1019B000FEF77CFD10BD000010B59CB038216846D4
:1019C000FEF7E5FB142117A8FEF7E1FB24210EA882
:1019D000FEF7DDFB1D4801680322D2029143C214C9
:1019E000891801600A2000900121102004900591BF
:1019F00002200A9080040C900391000100240D90B5
:101A00000B946846FEF79CFF002801D072B6FEE7F3
:101A10000F2017900320189019941A9401211B94F9
:101A200017A8FEF763FE002801D072B6FEE7222059
:101A30000E90012040040F9011940EA8FEF790FD27
:101A4000002801D072B6FEE71CB010BD0070004047
:101A5000704710B5818CC90707D001684A68012317
:101A60005B049A43836A1A434A60818C890707D5CD
:101A700001684A6801231B049A43C36A1A434A60F7
:101A8000818C490707D501684A6801239B049A4362
:101A9000036B1A434A60818C090707D501684A68BD
:101AA0000123DB039A43436B1A434A60818CC906C6
:101AB00007D50268916801231B039943836B19437F
:101AC0009160818C890607D501688A6801235B03D0
:101AD0009A43C36B1A438A60818C490612D5036806
:101AE0005A6801210905046C8A4322435A60026C3A
:101AF0008A4207D10268516803235B059943436C0E
:101B000019435160818C090607D501684A68012391
:101B1000DB04806C9A4302434A6010BDF8B504466A
:101B2000002680300660FEF7BBFC05462068006892
:101B3000124F000709D501212B46002249052046F6
:101B4000009700F04BF900280DD12068006840078D
:101B50000BD501212B46002289052046009700F075
:101B60003DF9002801D00320F8BD2020A067E067E0
:101B70002666603426750020F8BD0000FFFFFF01D7
:101B800010B5806A0022014640314A834A82FFF73D
:101B900037FC10BD01680A68FF2321339A430A60AD
:101BA00001688A68520852008A60016E012904D1D6
:101BB00001680A6810239A430A602021C167002146
:101BC0000166416670470000F8B504460168806808
:101BD0002269E66910436269002532431043754B60
:101BE0000A68754E324002430A6020684168032249
:101BF00012039143E268114341602168A069994250
:101C000001D0226A10438A680B263602B24302438F
:101C10008A606A4922686A488A420CD1C068800793
:101C2000800F06D001283FD002283BD0032827D1BF
:101C300024E0012725E063498A420AD1C0680C21CB
:101C400008402DD004282FD008282BD00C2817D1DD
:101C500014E05D498A4223D05C498A4220D09A42EE
:101C60000ED1C16803208002014019D001208002FA
:101C7000091A19D0091A15D0814201D1082700E0AC
:101C800010274F495248403986009A4232D1002FDE
:101C90000CD0022F0DD0042F10D0082F7FD126E0BA
:101CA0000027EEE70227ECE70427EAE7FEF7ECFD62
:101CB00006E00968C90605D4304603E0FEF704FED5
:101CC000002872D0626851005118814267D8110310
:101CD000814264D3010E0602500800233018594196
:101CE000FEF71EFA03210902411A3A4A55E0012083
:101CF000C003E7E70122E369D20393422BD13B0003
:101D000000F0DCF80906090C4D114D4D4D274D0032
:101D1000FEF7BAFD09E0FEF7C7FD06E00968C9064F
:101D200005D4304603E0FEF7CFFD00283DD06168C2
:101D300040004A088018FEF7DDF980B202462649C5
:101D4000103A8A422BD8491C01400007400F084333
:101D500029E01046EBE73B0000F0B0F80906090C5B
:101D60002112212121232100FEF78EFD0AE0FEF73A
:101D70009BFD07E00968C90606D4304604E00EE082
:101D8000FEF7A2FD002810D061684A081018FEF77F
:101D9000B1F980B20146104A1039914203D90125A8
:101DA00003E01046F0E72168C86000206066A06686
:101DB0002846F8BD00480040F369FFEF00380140B5
:101DC0004010024000440040004C004000500040E1
:101DD00000093D00FFFC0F00EFFF0000FFB581B0E0
:101DE00005460F46044660350A9E39E0701C37D020
:101DF000FEF756FB0499401AB04222D8002E20D09C
:101E00002068016849072BD5C069C043000527D465
:101E100001202168C002086220680168FF22A13207
:101E20009143016020688168490849008160202051
:101E3000A067E0678034206000202875032005B08B
:101E4000F0BD20680168FF22A13291430160206843
:101E500081684908490081602020A067E067EBE7BE
:101E60002068C1693846884305D000210398814223
:101E7000BCD00020E3E70121F8E7000010B50248DC
:101E8000FFF7C0FA10BD00008C000020F8B5040C6C
:101E90008BB2264682B25E430D0C1046370C584377
:101EA000360480190021794116466E43370C3604FA
:101EB0008019794126466E438919F8BD30B47446BD
:101EC000641E2578641CAB4200D21D46635D5B0036
:101ED000E31830BC184700008307FF22DB0E9A404E
:101EE0008907090E9940002808DB830809489B00F0
:101EF0001B18186890430843186070470007000FCC
:101F00000838830804489B001B18D869904308438D
:101F1000D861704700E400E000ED00E002E008C88E
:101F2000121F08C1002AFAD170477047002001E053
:101F300001C1121F002AFBD170470000FEF7BEFA54
:101F4000FFF73AFDFFF7DCFBFFF762FCFFF7BEFC93
:101F5000FFF7DEFC054CFF25F53520212046FEF776
:101F600091FA2846FEF7ACF9F7E7000000040050AC
:101F70000000000000000000010203040607080939
:101F8000030406080C1018203000000000010203B2
:101F900004000000B41F0008000000201000000032
:101FA0001C1F0008C41F00081000002000050000CE
:101FB0002C1F0008010000000400000000000000C9
:041FC00000002000FD
:04000005080000C12E
:00000001FF
